{
  "contractName": "SponsoredCoin",
  "abi": [
    {
      "inputs": [],
      "stateMutability": "nonpayable",
      "type": "constructor"
    },
    {
      "anonymous": false,
      "inputs": [
        {
          "indexed": false,
          "internalType": "address",
          "name": "from",
          "type": "address"
        },
        {
          "indexed": false,
          "internalType": "address",
          "name": "to",
          "type": "address"
        },
        {
          "indexed": false,
          "internalType": "uint256",
          "name": "amount",
          "type": "uint256"
        }
      ],
      "name": "Sent",
      "type": "event"
    },
    {
      "inputs": [],
      "name": "minter",
      "outputs": [
        {
          "internalType": "address",
          "name": "",
          "type": "address"
        }
      ],
      "stateMutability": "view",
      "type": "function"
    },
    {
      "inputs": [
        {
          "internalType": "address",
          "name": "receiver",
          "type": "address"
        },
        {
          "internalType": "uint256",
          "name": "amount",
          "type": "uint256"
        }
      ],
      "name": "mint",
      "outputs": [],
      "stateMutability": "nonpayable",
      "type": "function"
    },
    {
      "inputs": [
        {
          "internalType": "address",
          "name": "receiver",
          "type": "address"
        },
        {
          "internalType": "uint256",
          "name": "amount",
          "type": "uint256"
        }
      ],
      "name": "send",
      "outputs": [],
      "stateMutability": "nonpayable",
      "type": "function"
    },
    {
      "inputs": [
        {
          "internalType": "address",
          "name": "tokenOwner",
          "type": "address"
        }
      ],
      "name": "balanceOf",
      "outputs": [
        {
          "internalType": "uint256",
          "name": "balance",
          "type": "uint256"
        }
      ],
      "stateMutability": "view",
      "type": "function"
    },
    {
      "inputs": [
        {
          "internalType": "address",
          "name": "account",
          "type": "address"
        }
      ],
      "name": "addPrivilege",
      "outputs": [],
      "stateMutability": "payable",
      "type": "function"
    },
    {
      "inputs": [
        {
          "internalType": "address",
          "name": "account",
          "type": "address"
        }
      ],
      "name": "removePrivilege",
      "outputs": [],
      "stateMutability": "payable",
      "type": "function"
    }
  ],
  "bytecode": "0x608060405234801561001057600080fd5b50336000806101000a81548173ffffffffffffffffffffffffffffffffffffffff021916908373ffffffffffffffffffffffffffffffffffffffff160217905550610825806100606000396000f3fe6080604052600436106100555760003560e01c8063075461721461005a57806315a9b7271461009b57806340c10f19146100df57806370a082311461013a5780638735cc701461019f578063d0679d34146101e3575b600080fd5b34801561006657600080fd5b5061006f61023e565b604051808273ffffffffffffffffffffffffffffffffffffffff16815260200191505060405180910390f35b6100dd600480360360208110156100b157600080fd5b81019080803573ffffffffffffffffffffffffffffffffffffffff169060200190929190505050610262565b005b3480156100eb57600080fd5b506101386004803603604081101561010257600080fd5b81019080803573ffffffffffffffffffffffffffffffffffffffff169060200190929190803590602001909291905050506103ba565b005b34801561014657600080fd5b506101896004803603602081101561015d57600080fd5b81019080803573ffffffffffffffffffffffffffffffffffffffff169060200190929190505050610488565b6040518082815260200191505060405180910390f35b6101e1600480360360208110156101b557600080fd5b81019080803573ffffffffffffffffffffffffffffffffffffffff1690602001909291905050506104d1565b005b3480156101ef57600080fd5b5061023c6004803603604081101561020657600080fd5b81019080803573ffffffffffffffffffffffffffffffffffffffff16906020019092919080359060200190929190505050610629565b005b60008054906101000a900473ffffffffffffffffffffffffffffffffffffffff1681565b6060600167ffffffffffffffff8111801561027c57600080fd5b506040519080825280602002602001820160405280156102ab5781602001602082028036833780820191505090505b50905081816000815181106102bc57fe5b602002602001019073ffffffffffffffffffffffffffffffffffffffff16908173ffffffffffffffffffffffffffffffffffffffff168152505073088800000000000000000000000000000000000173ffffffffffffffffffffffffffffffffffffffff166310128d3e826040518263ffffffff1660e01b81526004018080602001828103825283818151815260200191508051906020019060200280838360005b8381101561037957808201518184015260208101905061035e565b5050505090500192505050600060405180830381600087803b15801561039e57600080fd5b505af11580156103b2573d6000803e3d6000fd5b505050505050565b60008054906101000a900473ffffffffffffffffffffffffffffffffffffffff1673ffffffffffffffffffffffffffffffffffffffff163373ffffffffffffffffffffffffffffffffffffffff161461041257600080fd5b789f4f2726179a224501d762422c946590d91000000000000000811061043757600080fd5b80600160008473ffffffffffffffffffffffffffffffffffffffff1673ffffffffffffffffffffffffffffffffffffffff168152602001908152602001600020600082825401925050819055505050565b6000600160008373ffffffffffffffffffffffffffffffffffffffff1673ffffffffffffffffffffffffffffffffffffffff168152602001908152602001600020549050919050565b6060600167ffffffffffffffff811180156104eb57600080fd5b5060405190808252806020026020018201604052801561051a5781602001602082028036833780820191505090505b509050818160008151811061052b57fe5b602002602001019073ffffffffffffffffffffffffffffffffffffffff16908173ffffffffffffffffffffffffffffffffffffffff168152505073088800000000000000000000000000000000000173ffffffffffffffffffffffffffffffffffffffff1663d2932db6826040518263ffffffff1660e01b81526004018080602001828103825283818151815260200191508051906020019060200280838360005b838110156105e85780820151818401526020810190506105cd565b5050505090500192505050600060405180830381600087803b15801561060d57600080fd5b505af1158015610621573d6000803e3d6000fd5b505050505050565b600160003373ffffffffffffffffffffffffffffffffffffffff1673ffffffffffffffffffffffffffffffffffffffff168152602001908152602001600020548111156106de576040517f08c379a00000000000000000000000000000000000000000000000000000000081526004018080602001828103825260158152602001807f496e73756666696369656e742062616c616e63652e000000000000000000000081525060200191505060405180910390fd5b80600160003373ffffffffffffffffffffffffffffffffffffffff1673ffffffffffffffffffffffffffffffffffffffff1681526020019081526020016000206000828254039250508190555080600160008473ffffffffffffffffffffffffffffffffffffffff1673ffffffffffffffffffffffffffffffffffffffff168152602001908152602001600020600082825401925050819055507f3990db2d31862302a685e8086b5755072a6e2b5b780af1ee81ece35ee3cd3345338383604051808473ffffffffffffffffffffffffffffffffffffffff1681526020018373ffffffffffffffffffffffffffffffffffffffff168152602001828152602001935050505060405180910390a1505056fea264697066735822122030ec77e3b4bdbf1294a85c25cfc1d0e9c58952b3415599b5abc5ffd1040463c264736f6c634300060c0033",
  "immutableReferences": {},
  "source": "pragma solidity >=0.5.0 <0.7.0;\r\n// \r\nimport \"./SponsorWhitelistControl.sol\";\r\n\r\ncontract SponsoredCoin {\r\n    // minter是去minter合约的一个地址\r\n    address public minter;\r\n    // balances是一个mapping 这个map是从地址到每个地址余额的这么一个map\r\n    mapping (address => uint) private balances;\r\n    // SponsorWhiteControl是 代付白名单 的赞助者\r\n    SponsorWhitelistControl constant private SPONSOR = SponsorWhitelistControl(address(0x0888000000000000000000000000000000000001));\r\n    // 合约中的Sent event事件\r\n    event Sent(address from, address to, uint amount);\r\n    // constructor是部署合约时会运行的一个方法\r\n    constructor() public {\r\n        // 将msg.sender即给部署合约进行签名的地址 赋值给minter 作为合约的minter存在\r\n        minter = msg.sender;\r\n    }\r\n\r\n    // mint操作\r\n    function mint(address receiver, uint amount) public {\r\n        // 检查mint的方法的签名者是不是minter本人 必须是minter本人才能进行mint操作\r\n        require(msg.sender == minter);\r\n        // mint的操作 值不能大于10的60次方\r\n        require(amount < 1e60);\r\n        // 如果上面两步都没问题 就会给balances的map对应的receiver 传amount这么多token\r\n        balances[receiver] += amount;\r\n    }\r\n\r\n    // send操作\r\n    function send(address receiver, uint amount) public {\r\n        // 检查试图转的token数量是不是小于等于sender本身拥有的目前的余额 超出则会禁止转账\r\n        require(amount <= balances[msg.sender], \"Insufficient balance.\");\r\n        // 没有问题则更新该操作sender和receiver两个人的余额\r\n        balances[msg.sender] -= amount;\r\n        balances[receiver] += amount;\r\n        // 最后emit这个event事件 向刚刚定义的event加入一条记录\r\n        emit Sent(msg.sender, receiver, amount);\r\n    }\r\n    \r\n    // 只读方法 返回tokenOwner所有的balance\r\n    function balanceOf(address tokenOwner) public view returns(uint balance){\r\n      return balances[tokenOwner];\r\n    }\r\n    // 代付合约中设置白名单方法\r\n    function addPrivilege(address account) public payable {\r\n        address[] memory a = new address[](1);\r\n        a[0] = account;\r\n        // 调用该合约addPrivilege时候会将同样的请求转发给sponsor的系统合约\r\n        // 使用之前定义的sponsor 将请求转发给系统sponsor的系统合约 由系统合约来添加白名单\r\n        SPONSOR.addPrivilege(a);\r\n    }\r\n\r\n    function removePrivilege(address account) public payable {\r\n        address[] memory a = new address[](1);\r\n        a[0] = account;\r\n        SPONSOR.removePrivilege(a);\r\n    }\r\n}",
  "sourcePath": "/d/Blockchain/Projects/SponsoredCoin101/contracts/SponsoredCoin.sol",
  "compiler": {
    "name": "solc",
    "version": "0.6.12+commit.27d51765.Emscripten.clang"
  },
  "schemaVersion": "3.2.0",
  "updatedAt": "2021-07-09T01:32:18.300Z",
  "devdoc": {
    "kind": "dev",
    "methods": {},
    "version": 1
  },
  "userdoc": {
    "kind": "user",
    "methods": {},
    "version": 1
  }
}